:020000040800F2
:10000000F0A80020AD020008910F00084508000884
:100010008D0F00088D050008A911000800000000E0
:10002000000000000000000000000000950F000824
:100030009105000800000000930F0008970F0008CA
:10004000C7020008C7020008C7020008C70200086C
:10005000C7020008C7020008C7020008C70200085C
:10006000C7020008C7020008C7020008C70200084C
:10007000C7020008C7020008C7020008C70200083C
:10008000C7020008C7020008C7020008C70200082C
:10009000C7020008C7020008C7020008C70200081C
:1000A000C7020008C7020008C7020008C70200080C
:1000B000C7020008C7020008C7020008C7020008FC
:1000C000C7020008C7020008C7020008C7020008EC
:1000D000C7020008C7020008C7020008C7020008DC
:1000E000C7020008C7020008C7020008C7020008CC
:1000F000F1100008C7020008C7020008C702000884
:10010000C7020008C7020008BD100008C7020008A7
:10011000C7020008C7020008C7020008C70200089B
:10012000C7020008C7020008C7020008C70200088B
:10013000C7020008C7020008C7020008C70200087B
:10014000C7020008C7020008C7020008C70200086B
:10015000C7020008C702000800000000C70200082C
:10016000C7020008C70200080000000000000000ED
:10017000C7020008C7020008C7020008000000000C
:1001800000000000C7020008C7020008C7020008FC
:10019000C70200080000000000000000000000008E
:1001A000000000000000000000000000C70200087E
:1001B000C702000800000000C7020008000000009D
:1001C000000000000000000000000000000000002F
:1001D0000000000000000000C7020008C70200087D
:1001E000C7020008C7020008C7020008C7020008CB
:1001F000C7020008C7020008C7020008C7020008BB
:10020000C7020008C7020008C702000800F002F891
:1002100000F03CF80AA090E8000C82448344AAF164
:100220000107DA4501D100F031F8AFF2090EBAE862
:100230000F0013F0010F18BFFB1A43F0010318471A
:10024000D01D0000F01D0000103A24BF78C878C10E
:10025000FAD8520724BF30C830C144BF04680C60CC
:10026000704700000023002400250026103A28BF14
:1002700078C1FBD8520728BF30C148BF0B60704718
:100280001FB501F042FE1FBD10B510BD00F0F1F822
:100290001146FFF7F5FF01F0BBF900F00FF903B4C9
:1002A000FFF7F2FF03BC00F017F900000948804790
:1002B00009480047FEE7FEE7FEE7FEE7FEE7FEE748
:1002C000FEE7FEE7FEE7FEE704480549054A064B60
:1002D00070470000A10F00080D020008F080002008
:1002E000F0A80020F0A00020F0A0002053EA020CAB
:1002F00000F069802DE9F04B4FF00006002B1FBF86
:10030000B3FA83F503FA05F424FA05F65E4012BF4A
:100310001643B2FA82F502FA05F4C5F120051EBFB4
:1003200022FA05FC44EA0C04203556EA044C4FEA54
:10033000144418BF641C4FF000084FF000099042AD
:1003400071EB030C39D3002919BFB1FA81F701FA17
:1003500007F6B0FA80F700FA07F6C7F120071EBFCC
:1003600020FA07FC46EA0C062037B6FBF4FCA7EBA4
:100370000507103F07F01F0BCBF120060CFA0BFB13
:100380002CFA06F644BFB3460026202FA4BF5E46D3
:100390004FF0000B5BEA060C08BF4FF0010B19EBA6
:1003A0000B09ABFB027C48EB0608C01B06FB02CC2A
:1003B0000BFB03CC71EB0C01C1E70B460246414637
:1003C0004846BDE8F08B13B54FF000004FF0000138
:1003D000AFF30080BDE81C4070474FF000020429D5
:1003E000C0F0128010F0030C00F01E80CCF1040C61
:1003F000BCF1020F18BF00F8012BA8BF20F8022B98
:10040000A1EB0C0100F010B85FEAC17C24BF00F83A
:10041000012B00F8012B48BF00F8012B70477047F3
:10042000704770474FF0000200B513469446964659
:10043000203922BFA0E80C50A0E80C50B1F12001F7
:10044000BFF4F7AF090728BFA0E80C5048BF0CC0A5
:100450005DF804EB890028BF40F8042B08BF704703
:1004600048BF20F8022B11F0804F18BF00F8012B75
:100470007047754600F02CF8AE46050069465346B5
:1004800020F00700854618B020B5FFF71DFFBDE836
:1004900020404FF000064FF000074FF000084FF0EB
:1004A000000B21F00701AC46ACE8C009ACE8C0097C
:1004B000ACE8C009ACE8C0098D46704710B50446E9
:1004C000AFF300802046BDE81040FFF7E8BE000013
:1004D000004870478C80002001491820ABBEFEE721
:1004E00026000200704700001CB5684601F028F89D
:1004F0000121174800F078FF01208DF80700002047
:100500008DF8040001208DF8060000208DF805000C
:100510000120009069460F4801F01CF801200D49A8
:10052000183108600220009069460A4801F012F86C
:1005300002200849183108600420009069460548E7
:1005400001F008F8042003491831086000201CBDA0
:100550000100300000040240014621B1012906D00B
:1005600002290CD107E00120074A106009E00220AF
:10057000054A106005E00420034A106001E00120F4
:10058000704700BF0020FBE72804024000BFFEE7E1
:100590007047000038B500F07DFD0546A7480068AB
:1005A000281A3C2871D9A64800880A286ED2DFE8AC
:1005B00000F00506284A6E90B0CFF3F134E14FF613
:1005C000FF704023202200210090084600F028FA06
:1005D000002413E04FF4FC622146002000F034F9BF
:1005E0004FF4FC622146012000F02EF94FF4FC622A
:1005F0002146022000F028F9601C84B2402CE9DB7F
:1006000012E14FF6FF70402320220021009008469F
:1006100000F006FA002413E04FF4FC6221460320A8
:1006200000F012F94FF4FC622146042000F00CF9AE
:100630004FF4FC622146052000F006F9601C84B2EC
:10064000402CE9DBF0E04FF6FF7040232022002130
:100650000090084600F0E4F9002413E04FF6E07241
:100660002146062000F0F0F84FF6E0722146072000
:1006700000F0EAF84FF6E0722146082000F0E4F8B6
:10068000601C84B2402CE9DBCEE0D5E0C8E04FF638
:10069000FF704023202200210090084600F0C0F99E
:1006A000002413E04FF6E0722146092000F0CCF858
:1006B0004FF6E07221460A2000F0C6F84FF6E072CD
:1006C00021460B2000F0C0F8601C84B2402CE9DB0E
:1006D000AAE04FF6FF704023202200210090084638
:1006E00000F09EF9002411E0002221460C2000F0C9
:1006F000ABF8002221460D2000F0A6F84FF6E0727C
:1007000021460E2000F0A0F8601C84B2402CEBDBE8
:100710008AE04FF6FF704023202200210090084617
:1007200000F07EF9002410E01F2221460F2000F087
:100730008BF81F222146102000F086F81F22214648
:10074000112000F081F8601C84B2402CECDB6BE0DF
:100750004FF6FF704023202200210090084600F051
:100760005FF9002413E04FF478422146122000F094
:100770006BF84FF478422146132000F065F84FF4EF
:1007800078422146142000F05FF8601C84B2402CAF
:10079000E9DB49E022E0FFE74FF6FF70402320222B
:1007A00000210090084600F03BF9002413E04FF4CC
:1007B00078422146152000F047F84FF47842214650
:1007C000162000F041F84FF478422146172000F03F
:1007D0003BF8601C84B2402CE9DB25E04FF6FF704B
:1007E0004023202200210090084600F019F900243F
:1007F00013E04FF478422146182000F025F84FF41A
:1008000078422146192000F01FF84FF47842214623
:100810001A2000F019F8601C84B2402CE9DB03E0D8
:1008200000200749088000BF00BF05480088401C21
:10083000034908800148056038BD00000000002021
:100840000400002000BFFEE72DE9F001714CD30A3F
:10085000C2F3451534F813C004F1400302F01F023F
:1008600033F8153034F8124000256B4E6B4A1F29BF
:100870006AD9800000EB8120A0F5004081B251834D
:10088000D5701CF4004F4FF0080018BFD07013F45F
:10089000004F02D0D7781037D77014F4004F02D031
:1008A000D7782037D770775C92F8038007F0C707B6
:1008B00047EA08077754D5701CF4804F18BFD070F2
:1008C00013F4804F02D0D7781037D77014F4804FCC
:1008D00002D0D7782037D7703144D7784E7806F0D9
:1008E000C7063E434E70D5701CF4005F18BFD07031
:1008F00013F4005F02D0D6781036D67014F4005F7F
:1009000002D0D6782036D6708E78D77806F0C70613
:100910003E438E70D5701CF4805F18BFD07013F406
:10092000805F02D0D0781030D07014F4805F02D095
:10093000D0782030D070C878D27800F0C70010434B
:10094000C870BDE8F001704700EB01204FF6FF7161
:1009500001EA800050834FEADC31D17013F4004F7C
:100960001CBF891CD17014F4004F02D0D178091D2E
:10097000D170315CD77801F0F80139433154D5702A
:100980001CF4804F4FF0010118BFD17013F4804F59
:1009900002D0D778BF1CD77014F4804F02D0D7781C
:1009A0003F1DD7703044D778467806F0F8063E43AE
:1009B0004670D5701CF4005F18BFD17013F4005F4F
:1009C00002D0D678B61CD67014F4005F02D0D67868
:1009D000361DD6708678D77806F0F8063E438670C6
:1009E000D5701CF4805F18BFD17013F4805F02D003
:1009F000D178891CD17014F4805F02D0D178091DA0
:100A0000D170C178D27801F0F8011143C170BDE80E
:100A1000F0017047141F00088C0000200C0000201B
:100A20002DE9FF4F83B08C4610985A49C40AC0F391
:100A3000451500F01F0031F8148001F1400431F831
:100A40001060554934F81570581CA1F820C0029068
:100A500084457DD28B780879521C4FF4004C00926B
:100A6000039ACA83009CA24238BF0C8C71D290B208
:100A700000EB042201904FF6FF7000EA82004883E9
:100A80000723A1F81CC01F2C03D9A0F50040382370
:100A900048834248B1F81A90002248444FF0020AB5
:100AA000B0F1010009EB020BBBF5004F24DA002581
:100AB000CD702CFA02F58D8318EA050F1CBF4FF09C
:100AC000010E81F803E02F4205D091F803E00EF10A
:100AD000020E81F803E02E4202D0CD782D1DCD709C
:100AE0001F2C02D9CD78ED00CD70457891F803E048
:100AF0009D4345EA0E0545700BF10105B5F5004F24
:100B000025DA0025CD70551C2CFA05F58D8318EAE1
:100B1000050F1CBF4FF0010B81F803B02F4205D029
:100B200091F803B00BF1020B81F803B02E4202D012
:100B3000CD782D1DCD701F2C02D9CD78ED00CD7054
:100B4000857891F803B09D4345EA0B05857001E077
:100B50001AE00FE0801CAAF10105921C15F0FF0AB3
:100B6000A0D1019A0420521C92B2CA83009DAA42CD
:100B7000FFF47DAF0A8C521C92B20A84029CA242FE
:100B8000FFF46EAF8B7008710878401C087007B0D6
:100B9000BDE8F08F141F00080C0000208C0000201E
:100BA0002DE9FF4F8FB04B48DDF870C05B1CC0F8DB
:100BB00030C00184049399427ED281780379458CB8
:100BC000CDF81CC0878AC68AB0F818C0521C4FF4F2
:100BD000004B4FF0010E00920F9AC283009CA2427C
:100BE00038BFB0F820805DD2079931F8025B0791D9
:100BF0003949EA0AC5F3451331F8127001F1400290
:100C000032F8136005F01F0231F812C0C18B0D914C
:100C100001EB08224FF6FF7101EA820242830721AD
:100C2000A0F81CB0B8F11F0F03D9A2F5004238217B
:100C300042832A4A438B00241A444FF004090023BC
:100C4000C3702BFA04F383831F4218BF80F803E0BC
:100C50001E4205D090F803A00AF1020A80F803A012
:100C60001CEA030F02D0C3781B1DC370B8F11F0F1D
:100C700002D9C378DB00C370137890F803A08B43CC
:100C800043EA0A0302F8013BA9F10103641C13F0D3
:100C9000FF09D4D10D9A0423521C92B2C283009C46
:100CA000A242A1D3028C521C92B20284049CA242A2
:100CB00092D38170037100E006E0458407990163D7
:100CC0008782C682A0F818C00178491C017013B051
:100CD000BDE8F08F0C000020141F00088C000020DD
:100CE00030B52B482B4983B0008B0881C0B2C88037
:100CF00000F0BEFC00244FF400412748FFF76DFBD5
:100D000000F030FE00F016FE00F044FE234D00BF60
:100D10004FF47A7000F096FC00F024FE04EB84009F
:100D200005EB400210680090516801911289ADF8FE
:100D30000820029A00F0B2FD641C042CE8D34FF6A0
:100D4000FF70002100903F23FF220846FFF768FE56
:100D50004FF478400A2100903523F5220846FFF72A
:100D60005FFE4FF4FC60142100902B23EB22084619
:100D7000FFF756FE1F201E2100902123E122084686
:100D8000FFF74EFE03B0BDE8304000F071BD00003B
:100D9000700000200C0000208C000020400000208B
:100DA0002DE9F04F89B000F075F9734C069060782A
:100DB000002501282AD06078022833D060780328E3
:100DC00004BF0120207035D06B490698496A401A4B
:100DD0001E2866D968480178491C017000780028EF
:100DE0005CD000F0FBFD0020DFF89081644F4FF4F1
:100DF000FC4503904FF0000B039800260BEB0020FE
:100E00004FEA800A0AEB861900241BE0608A0090F2
:100E1000238AE289A1896089FFF702FE657009B023
:100E2000BDE8F08FE06A0090238AE289A189608999
:100E3000FFF7B6FE657009B0BDE8F08F042C28BF3F
:100E4000BD6208D209EB040018F800004102B96144
:100E500025EA4020B8620F2E08BF0F2C01D100F008
:100E6000B1FD00F00DFD601CC4B2102CE6D300F003
:100E7000AFFD761C102EC5D30BF1010BBBF1100F8B
:100E8000BAD30398401C03902028B3D300F0EAFBA8
:100E90003948017811B10178491E01703648069928
:100EA0004162354D0698374EA96A401A42F21071D8
:100EB000884225D9002400F091FD00F053FD00F098
:100EC00039FD00BF4FF47A7000F0BCFB00F04AFD22
:100ED00004EB840006EB4002106800905168019119
:100EE0001289ADF80820029A00F0D8FC641C042C8A
:100EF000E8D3012028702878401C28700698A86242
:100F00002989E888814204BF09B0BDE8F08F2881B3
:100F100000EB40101C49C0EB0010A1FB0010400981
:100F200040F2FE3100F504700840F1890A466FF383
:100F3000490202436FF34901B2810143F1816FF32A
:100F400049010843308200F049FD4FF47A7000F007
:100F500079FB00F007FDD6F80A000090D6F80E10D5
:100F60000191728AADF80820029A00F097FC0120E6
:100F7000287009B0BDE8F08F0C0000208C00002024
:100F800000100240400000201F85EB5100BFFEE72B
:100F900070477047704710B500F082F810BD000030
:100FA0001F48006840F470001D4908601D48006833
:100FB00020F00100401C1B49086000BF1948006870
:100FC000C0F340000028F9D016480830006820F02F
:100FD000030014490831086000BF12480830006857
:100FE000C0F381000028F8D10E4800680E4908407F
:100FF0000C49086000200B49083108600B48091FA4
:10100000086000200749A03108604FF41F0005491F
:101010000C3108604FF0006001498039086070476A
:1010200088ED00E000380240FFFFF2FE02300300CE
:1010300070B5042000F01AFE134800684FF47A726D
:10104000B0FBF2F1481EB0F1807F00D31BE0481ED8
:101050004FF0E022506150170F22002804DB1307E5
:101060001C0E0A4B1C5406E013071D0E084B00F023
:101070000F04241F1D5500BF00204FF0E022906197
:101080000720106100BF70BD6C00002000E400E08C
:1010900018ED00E0014800687047000008000020DB
:1010A00002480068401C01490860704708000020A1
:1010B00010B5FFF775FEFFF76DFA10BD094801681E
:1010C00011F0010F08BF704707490A6822F00102BA
:1010D0000A6006490A6822F001020A606FF0010105
:1010E00001607047100C004000040040000C0040FC
:1010F00010B5254C0121204600F0F8FD002808BF5E
:1011000010BD0121204600F0EEFD204C204A207841
:10111000810111601F4A4FF4F86121EA80111160CA
:10112000D8B9607810F0010F05D000F033FC00F062
:1011300031FC02206070607810F0020F03D100F0E3
:1011400029FC00F027FC607810F0040F05D06078CF
:1011500020F00400607000F01DFC0F4900200860C2
:101160000E4908600E490A6842F001020A600D4902
:101170000A6842F001020A602178491CC9B2217054
:10118000202908BF207010BD000401406800002025
:10119000180C0240280C0240240C0040240400409B
:1011A000000C00400004004000BFFEE7034909684E
:1011B00060F30711014A11607047000008380240CF
:1011C0000349096860F38C21014A116070470000EF
:1011D000083802400349096860F34F31014A116041
:1011E0007047000008380240012807D10749096804
:1011F00021F030013031054A116005E003490968EA
:1012000021F03001014A116070470000A43802400B
:1012100005282BD2DFE800F0030A11182100154A37
:10122000126861F30002134B1A6020E0114A126841
:1012300061F310420F4B1A6019E00E4A126861F315
:1012400018620C4B1A6012E00A4A7032126861F39D
:101250000002084B70331A6009E0064A74321268C3
:1012600061F30002034B74331A6000E000BF00BF5B
:1012700070470000003802402DE9FE4F04464FF051
:101280000009CA46CB4600200290019000250026A6
:1012900000F04EF90090009820B1012812D00228E9
:1012A0003FD112E031480068C0F3803038B12F4898
:1012B0000068C0F3003010B12D48206001E02D48D7
:1012C000206031E02B4820602EE028489C380068E0
:1012D000C0F38050029025489C380068C0F38819FC
:1012E00022489C38006800F00F0A20489C380068AB
:1012F000C0F30240204911F800B0029810B91D480F
:10130000019001E01B4801900AFB0BFC0198A0FB37
:1013100009700146624600233846FEF7E7FF206069
:1013200002E01448206000BF00BF104898380068F1
:10133000C0F303151148465D2068F04060600B481B
:1013400098380068C0F382250D48465D6068F0401B
:10135000E060064898380068C0F342350948465DA9
:101360006068F040A060BDE8FE8F0000A038024039
:10137000006CDC0200127A000A200008EA1F000854
:10138000FA1F00080220000810B501460020094B92
:1013900003EB1142D2F8002801F01F040123A340FF
:1013A0001A4001F01F040123A3409A4200D000E03C
:1013B000012010BD0030024030B50024002500E0BF
:1013C000641C1120FFF7E0FF012802D0B4F5405F54
:1013D000F6D31120FFF7D8FF012801D0002500E047
:1013E0000125284630BD000010B501290FD1104B52
:1013F00003EB1042D2F8002800F01F040123A340A1
:101400001A430B4C04EB1043C3F800280EE0084BC2
:1014100003EB1042D2F8002800F01F040123A34080
:101420009A43034C04EB1043C3F8002810BD00009E
:101430000030024030B538B90F4C246824F4805491
:1014400004F580540C4D2C600B4C9C3C246860F3DC
:101450009654094D9C3D2C602C46246861F38E14F3
:101460002C602C46246862F303042C602C4624680C
:1014700063F312442C6030BDA03802401A48006863
:1014800020F00100401C1849086000BF16480068A1
:10149000C0F340000028F9D013480830006820F05D
:1014A000030011490831086000BF0F480830006888
:1014B000C0F381000028F8D10B4800680B490840B0
:1014C0000949086000200849083108600848091FD8
:1014D000086000200449A03108604FF41F00024951
:1014E0000C3108607047000000380240FFFFF2FE38
:1014F000023003000D49096860F301010B4A1160D5
:1015000000BF00BF00BF00BF00BF00BF00BF00BFE3
:1015100000BF00BF00BF00BF00BF00BF00BF00BFD3
:1015200000BF00BF00BF00BF704700000838024086
:1015300002480068C0F3810070470000083802408C
:101540004FF6FF710160002181710171417101212C
:10155000C171704770B50A4600211488A3B233E008
:1015600003F001046CB304684E000325B540AC439E
:10157000046094794D00AC4005682C4304604468D5
:1015800001258D40AC434460446815798D402C435F
:10159000446084684E000325B540AC438460D47930
:1015A0004D00AC4085682C438460C4684E00032520
:1015B000B540AC43C46054794D00AC40C5682C4381
:1015C000C4605B104C1CA1B2002BC9DC70BDF0B52F
:1015D000002300244D07ED0E02FA05F3CD105DB196
:1015E000456A4E07F70E0F26BE40B5434562456A71
:1015F00045EA030444620AE0056A4E07F70E0F2627
:10160000BE40B5430562056A45EA03040462F0BDC5
:1016100000F066FAFFF70CFD062000F04DFA0020FE
:1016200007498861FEF760FF0220FEF795FF012061
:10163000FEF792FFFFF754FB01E0FFF739FDFCE7EF
:101640007000002000E000BF011EA0F10100FAD1EF
:101650007047022000E000BF011EA0F10100FAD196
:10166000704700000149042048707047680000205E
:101670002DE9F0438DB00AA8FFF762FF01216F4802
:10168000FFF7B2FE01216E48FFF7AEFEDFF8B4812E
:1016900001214046FFF7A8FE01248DF82F400025C8
:1016A0008DF82C50684E8DF82E404FF4FC478DF885
:1016B0002D500AA930460A97FFF74CFF4FF4F86007
:1016C000DFF888910A900AA94846FFF743FF3020C7
:1016D0000A900AA94846FFF73DFFB7625C48102709
:1016E00007602021016001215A48FFF77DFE01219A
:1016F0005948FFF779FE01215848FFF775FE01218F
:101700004046FFF771FE022204213046FFF75FFFDB
:1017100008A8FFF715FF8DF824508DF825500220FA
:101720008DF8260008978DF8274008A93046FFF766
:1017300011FF04A8FFF7A0FD079849494000B0FB3E
:10174000F1F0401E86B2474F00223146384600F085
:10175000A1FA0021384600F0C1FA0121384600F014
:10176000B8FA684600F0AFFB03208DF800008DF852
:1017700001508DF803408DF805406A460221384635
:1017800000F0C8FA72080221384600F08BFA0121F5
:10179000384600F0B0FB0521384600F0A2FB0121DD
:1017A000384600F099FB304C00228821204600F09A
:1017B00071FA0021204600F091FA0021204600F045
:1017C00088FA0121204600F09BFB0721204600F00B
:1017D0008DFB0121204600F086FA012211462046A9
:1017E00000F08DFA079847F230514000B0FBF1F05D
:1017F000401E1E4C81B20022204600F04BFA002110
:10180000204600F06BFA0021204600F062FA012128
:10181000204600F068FA01221146204600F06FFAD7
:1018200001220021322000F0E3F8022200212C20C6
:1018300000F0DEF80DB0BDE8F083000001003000DC
:10184000030030000400300000100240000C024091
:10185000280C024001004000010044000300400049
:10186000001BB70000040040000C004000040140D1
:101870000248016841F00101016070470004014025
:1018800010B5044910200860FFF7E3FE024910205C
:10189000086010BD180C0240280C02402DE9F743E7
:1018A00010269DF80800C0F1100000F0FF0832E09B
:1018B00000252BE04FF4004040FA05F70024BDF866
:1018C0000200384010B104F1090084B2BDF80400F0
:1018D000384010B104F1120084B2BDF8060038405F
:1018E00010B104F1240084B20F49600288614FF402
:1018F000FC4020EA4420886226B9454502D10B49C4
:1019000020200860FFF7BCFF681CC5B2102DD1DB9A
:10191000074920200860301EA6F10101CEB2C7D1D0
:1019200003B0BDE8F083000000100240180C024034
:10193000280C024010B50C24084920200860FFF74D
:1019400088FE01E0FFF79CFF201EA4F10101CCB24C
:10195000F8D103492020086010BD0000180C024097
:10196000280C024010B50E24084920200860FFF71B
:1019700070FE01E0FFF784FF201EA4F10101CCB24C
:10198000F8D103492020086010BD0000180C024067
:10199000280C024010B50324084920200860FFF7F6
:1019A00058FE01E0FFF76CFF201EA4F10101CCB24C
:1019B000F8D103492020086010BD0000180C024037
:1019C000280C02400149202008607047180C024092
:1019D0000149202008607047280C0240034801217B
:1019E0004170417811F0010FFBD170476800002071
:1019F0002DE9F0470B4614464FF0000C00BF2C4A6F
:101A00001268C2F302211D4626460A46C2F10709A2
:101A1000B9F1040F02D94FF0040901E0C2F107093E
:101A2000C84602F10409B9F1070F02D24FF00009CC
:101A300001E0A2F103094F464FF0010909FA08F944
:101A4000A9F1010909EA050909FA07F94FF0010AA4
:101A50000AFA07FAAAF1010A0AEA060A49EA0A0991
:101A6000CC4601466246002904DB15072E0E114DB7
:101A70006E5407E015072F0E0D4D0C3501F00F06C3
:101A8000361FAF5500BF014600290DDB00BF00BF68
:101A900001F01F050122AA404D09AD0005F1E02526
:101AA000C5F8002100BF00BF00BFBDE8F0870000FF
:101AB0000CED00E000E400E000BF00F00702064B80
:101AC00019684FF6FF031940044B0B4343EA022108
:101AD000014B196000BF70470CED00E00000FA05F3
:101AE00010B5FFF7CBFC01212148FFF77DFC214811
:101AF000006920F00700401C1E4908611E4800686C
:101B000020F00300401C1C49086001210846FFF733
:101B10007FFB00BFFFF750FC0028FBD0022301220F
:101B200090211046FFF786FC01210220FFF770FB91
:101B300000BF1920FFF728FC0128FAD10020FFF789
:101B400035FB0420FFF746FB0420FFF739FB01209B
:101B5000FFF74AFB0220FFF7CDFC00BFFFF7E8FCD0
:101B60000228FBD10020FFF73FFB00F007F810BD73
:101B70001C00400000700040603C02402DE9FC5F0A
:101B8000002400250026A146A246A346002001907D
:101B9000FFF7CEFC0090009820B1012814D0022855
:101BA00041D115E02B480068C0F3803040B129488E
:101BB0000068C0F3003018B127482849086002E0E7
:101BC00027482649086032E02548244908602EE06D
:101BD00020489C380068C0F380591E489C38006833
:101BE000C0F388141B489C38006800F00F051948A2
:101BF0009C380068C0F302401A490E5CB9F1000F2E
:101C000002D1DFF85CA001E0DFF854A005FB06FC80
:101C1000AAFB04700146624600233846FEF766FBC5
:101C20000E49086003E00E480C49086000BF00BF81
:101C3000084898380068C0F3031B0B4810F80B00E5
:101C40000190064800680199C84004490860BDE851
:101C5000FC9F0000A0380240006CDC026C000020F9
:101C600000127A00E41F0008D41F0008042808D1DD
:101C70004FF0E021096941F004014FF0E0221161C9
:101C800007E04FF0E021096921F004014FF0E02264
:101C900011617047C1628262436923F001035B1CDA
:101CA0004361704710B50B46082B0FD2DFE803F0F5
:101CB000040E060E080E0A0C426308E0826306E07A
:101CC000C26304E0026402E0426700E000BF00BFBC
:101CD00010BD026861F3092202607047026861F377
:101CE000061202607047CA43026170470246002034
:101CF00013690B400BB1012000E000207047012A5E
:101D000003D1C3680B43C36003E012B9C3688B43BC
:101D1000C36070472DE9F04100250026002701F13E
:101D200008035C1C92F801C00CFA03FC1FFA8CF546
:101D300092F802C00CFA04FC1FFA8CF6D0F804806A
:101D40004FF0010C0CFA04FC28EA0C08C0F80480DF
:101D5000D0F804C04CEA060CC0F804C0D0F804C0A7
:101D60004FF0010808FA03F82CEA080CC0F804C088
:101D7000D0F804C04CEA050CC0F804C00F46082F88
:101D800032D2DFE807F004310D3116311F2892F806
:101D90000080D0F818C068F3061CC0F818C024E012
:101DA00092F80080D0F818C068F30E3CC0F818C054
:101DB0001BE092F80080D0F81CC068F3061CC0F845
:101DC0001CC012E092F80080D0F81CC068F30E3CF2
:101DD000C0F81CC009E092F80080D0F870C068F329
:101DE000061CC0F870C000E000BF00BF4FF0010C3F
:101DF0000CEB41034FF0030C0CEB410492F803C0D1
:101E00000CFA03FC1FFA8CF592F804C00CFA04FCDF
:101E10001FFA8CF64FF0010C0CFA04FCD0F820806D
:101E200028EA0C08C0F82080D0F820C04CEA060C44
:101E3000C0F820C04FF0010808FA03F8D0F820C01D
:101E40002CEA080CC0F820C0D0F820C04CEA050CE1
:101E5000C0F820C04B004FF0020C0CEB410492F88C
:101E600005C04FEA41080CFA08FC1FFA8CF592F8FD
:101E700006C04FF0020808EB41080CFA08FC1FFAF4
:101E80008CF64FF0010C0CFA04FCD0F8208028EA04
:101E90000C08C0F82080D0F820C04CEA060CC0F82E
:101EA00020C04FF0010C0CFA03FCD0F8208028EA87
:101EB0000C08C0F82080D0F820C04CEA050CC0F80F
:101EC00020C0BDE8F0810021017041708170C170B7
:101ED0000171417181717047026861F3C71202603C
:101EE0007047426861F3061242607047826861F38E
:101EF000020282607047826861F3C7128260704795
:101F0000826861F30612826070474FF04070E1EE24
:101F1000100A704700004400110166024304A9063C
:101F200097090E0D0C119415A31A3C205C26052D63
:101F30003634F03B3244FC4C4F562A608E6A7A7538
:101F4000EE80EB8C70997EA614B432C2D9D008E032
:101F5000BFEFFFFF000011004200950008019D0146
:101F600052022903210439057306CE074A09E60AFD
:101F7000A40C830E8310A412E6144917CD19721C09
:101F8000381F1F22272550289A2B052F91323E36C5
:101F90000D3AFC3D0C423D46904A034F97534D5835
:101FA000235D1A6233676C6CC7714277DF7C9C8259
:101FB0007B887A8E9B94DD9A3FA1C3A768AE2DB52E
:101FC00014BC1CC345CA8FD1F9D885E032E800F0B3
:101FD000EFF7FFFF00000000000000000102030413
:101FE0000607080901020408102000000000000094
:101FF00000000102030406070809000000000102B6
:102000000304000000000102030401020408102080
:102010003020000800000020700000004802000886
:10202000A02000087000002080A8000064020008C2
:1020300000000000000000000000000000000000A0
:1020400000006400640000000000000000000000C8
:102050000000000000000000000000000000000080
:102060000000000000000000000000000000000070
:102070000100001F001F001F04000200FF01FF01FC
:10208000FF0106000300000000000000080004003B
:102090000000000000000A000000000000127A00AA
:040000050800020DE0
:00000001FF
